:020000040000FA
:100000000C9463000C948B000C948B000C94E30311
:100010000C94E3030C94E3030C948B000C948B007E
:100020000C948B000C948B000C948B000C948B0024
:100030000C948B000C948B000C948B000C948B0014
:100040000C9441030C948B000C94B1030C948B031F
:100050000C948B000C948B000C948B000C948B00F4
:100060000C948B000C948B000000000024002700EF
:100070002A0000000008000201000003040700003D
:1000800000000000000000000000230026002900FE
:1000900000000000250028002B00040404040404D0
:1000A0000404020202020202030303030303010227
:1000B00004081020408001020408102001020408F6
:1000C00010205B04BC0711241FBECFEFD8E0DEBFB9
:1000D000CDBF11E0A0E0B1E0E6EDFFE002C0059089
:1000E0000D92AE32B107D9F722E0AEE2B1E001C025
:1000F0001D92AD3CB207E1F710E0C2E6D0E004C0CB
:100100002197FE010E94D807C136D107C9F70E9486
:1001100006050C94DE070C94000090E0FC01EE58FC
:10012000FF4F2491FC01E255FF4F3491FC01E6564C
:10013000FF4FE491EE23C9F0222339F0233001F17F
:10014000A8F4213019F1223029F1F0E0EE0FFF1F61
:10015000E057FF4FA591B4918FB7F894EC916111DE
:1001600026C030953E233C938FBF08952730A9F0D9
:100170002830C9F0243049F7809180008F7D03C07A
:10018000809180008F7780938000DFCF84B58F7758
:1001900084BDDBCF84B58F7DFBCF8091B0008F779E
:1001A0008093B000D2CF8091B0008F7DF9CF3E2BED
:1001B000DACFCF93DF9390E0FC01E255FF4F24911B
:1001C00086569F4FFC0184918823D1F090E0880FE0
:1001D000991FFC01E859FF4FA591B491FC01E0572C
:1001E000FF4FC591D49161110EC09FB7F8948C91C7
:1001F000E22FE0958E238C932881E223E8839FBF32
:10020000DF91CF9108958FB7F894EC91E22BEC93A6
:100210008FBFF6CFAF92BF92CF92DF92EF92FF9255
:100220000F931F93CF93DF936C017B018B01040F1E
:10023000151FEB015E01AE18BF08C017D10759F0BA
:100240006991D601ED91FC910190F081E02DC601FC
:100250000995892B79F7C501DF91CF911F910F91F6
:10026000FF90EF90DF90CF90BF90AF900895FC018A
:10027000538D448D252F30E0842F90E0821B930B0B
:10028000541710F0CF96089501970895FC01918DB1
:10029000828D981761F0A28DAE0FBF2FB11D5D96B4
:1002A0008C91928D9F5F9F73928F90E008958FEF56
:1002B0009FEF0895FC01918D828D981731F0828D0A
:1002C000E80FF11D858D90E008958FEF9FEF089561
:1002D000FC01918D228D892F90E0805C9F4F821BC5
:1002E00091098F739927089581E192E00E94680136
:1002F00021E0892B09F420E0822F089580E090E02E
:10030000892B29F00E94740181110C94000008953A
:10031000FC01A48DA80FB92FB11DA35ABF4F2C917A
:10032000848D90E001968F739927848FA689B78971
:100330002C93A089B1898C91837080648C93938D68
:10034000848D981306C00288F389E02D80818F7D0B
:1003500080830895EF92FF920F931F93CF93DF93C3
:10036000EC0181E0888F9B8D8C8D98131AC0E889F1
:10037000F989808185FF15C09FB7F894EE89FF89C0
:100380006083E889F98980818370806480839FBF5E
:1003900081E090E0DF91CF911F910F91FF90EF905E
:1003A0000895F62E0B8D10E00F5F1F4F0F7311276E
:1003B000E02E8C8D8E110CC00FB607FCFACFE889A9
:1003C000F989808185FFF5CFCE010E948801F1CFA8
:1003D000EB8DEC0FFD2FF11DE35AFF4FF0829FB71D
:1003E000F8940B8FEA89FB8980818062CFCFCF930D
:1003F000DF93EC01888D8823B9F0AA89BB89E8894D
:10040000F9898C9185FD03C0808186FD0DC00FB6F2
:1004100007FCF7CF8C9185FFF2CF808185FFEDCF70
:10042000CE010E948801E9CFDF91CF9108952091FC
:100430007001309171012817390771F490916E01A4
:1004400080916F01981741F0E0916E01F0E0E25D5C
:10045000FE4F808190E008958FEF9FEF08950895FB
:10046000EF92FF920F931F93CF93DF93DC015C9683
:10047000ED90FC905D97E114F10479F481E090E057
:1004800013969C938E93129790E080E0DF91CF912A
:100490001F910F91FF90EF9008955196ED91FC916F
:1004A000529750968C915097982F90950FB75E96D3
:1004B0002C915E97122F127021FD6095F894208187
:1004C000112319F1282B2083E7012197F1F728E068
:1004D000462F50E0308160FF1AC0382B3083E7018F
:1004E0002197F1F7BA0175956795215089F7112386
:1004F00081F08081892380830FBF5C968D919C91D0
:100500000197F1F781E090E0C1CF2923DCCF3923B7
:10051000E5CF9081892BEFCF20917001309171014F
:100520002817390761F480916F0120916E0190E0E6
:10053000805C9F4F821B91098F739927089590E0EB
:1005400080E00895209170013091710128173907DA
:10055000B9F490916E0180916F01981789F0E09144
:100560006E01F0E0E25DFE4F808120916E0130E08F
:100570002F5F3F4F2F73332720936E0190E0089534
:100580008FEF9FEF089590E080E00895FF920F9322
:100590001F93CF93DF93F82EC0917401C23020F0E7
:1005A00061E08C2F0E948D000EE711E0D0E0DF1596
:1005B00049F0F80161918F018EEA92E00E943002C9
:1005C000DF5FF5CF809172019091730182309105C8
:1005D00038F0880F991F880F991F05970197F1F739
:1005E000C23048F060E08C2FDF91CF911F910F91C6
:1005F000FF900C948D00DF91CF911F910F91FF9090
:100600000895EEE7F1E090E02FEF3FEF981791F0BB
:100610004191242748E0B9016170772736952795E5
:10062000672B21F051E0252750EA3527415099F7F3
:100630009F5FECCF922F832F089520917A01309104
:100640007B012F5F3F4F30937B0120937A01909184
:100650007901911115C09091780190937E0190914C
:100660007701906890937F018093800183E00E94DE
:100670000103909381018093820185E00C94C6026E
:1006800008951F920F920FB60F9211242F933F934C
:100690008F939F93AF93BF9380910D0290910E0221
:1006A000A0910F02B091100230910C0223E0230FB1
:1006B0002D3758F50196A11DB11D20930C02809392
:1006C0000D0290930E02A0930F02B093100280913E
:1006D000080290910902A0910A02B0910B020196C2
:1006E000A11DB11D8093080290930902A0930A02F4
:1006F000B0930B02BF91AF919F918F913F912F913A
:100700000F900FBE0F901F90189526E8230F0296AA
:10071000A11DB11DD2CF1F920F920FB60F921124BF
:100720002F933F934F935F936F937F938F939F93F9
:10073000AF93BF93EF93FF9381E192E00E94880112
:10074000FF91EF91BF91AF919F918F917F916F91A9
:100750005F914F913F912F910F900FBE0F901F907F
:1007600018951F920F920FB60F9211242F938F930B
:100770009F93EF93FF93E0912102F09122028081F9
:10078000E0912702F091280282FD1BC090818091A8
:100790002A028F5F8F7320912B02821741F0E09124
:1007A0002A02F0E0EF5EFD4F958F80932A02FF91C1
:1007B000EF919F918F912F910F900FBE0F901F90EF
:1007C00018958081F4CF1F920F920FB60F921124CB
:1007D0002F933F934F935F936F937F938F939F9349
:1007E000AF93BF93EF93FF93E0917001F09171018C
:1007F000309749F0A685B7858585968D91FF14C001
:100800009C918923A1F4FF91EF91BF91AF919F91AA
:100810008F917F916F915F914F913F912F910F90A9
:100820000FBE0F901F9018959C91892361F7A389A3
:10083000B4899C918589809589238C938689978931
:100840000197F1F7608D718DA685B785558538E0E4
:1008500020E0CB010197F1F7822F90E095958795E5
:10086000282F4C91452309F02068315091F7868D4F
:1008700081FD209580916F0190E001968F739927FB
:1008800030916E01381799F0A0916F01B0E0A25D30
:10089000BE4F2C9380936F01828D938D0197F1F75A
:1008A000A389B4898C919589892B8C93ACCF868D43
:1008B0008160868FF1CF109214021092130288EE9D
:1008C00093E0A0E0B0E08093150290931602A0930D
:1008D0001702B093180224E031E030931202209303
:1008E000110225EC30E030931E0220931D0224EC0F
:1008F00030E03093200220931F0220EC30E0309350
:1009000022022093210221EC30E030932402209334
:10091000230222EC30E0309326022093250226ECBD
:1009200030E0309328022093270210922A0210927E
:100930002B0210922C0210922D021092B1021092F2
:10094000B0028093B2029093B302A093B402B0932A
:10095000B50286E191E09093AF028093AE021092CF
:10096000C5021092C4021092C7021092C6021092E1
:10097000C9021092C8021092CB021092CA02609172
:10098000CC026E7F6D7F6093CC026695617081E0D2
:1009900068278BE00E948D0061E08BE00E94D90007
:1009A000E9EBF0E0E491E093BE02E5EAF0E0E491E7
:1009B000F0E0EE0FFF1FE057FF4F85919491909369
:1009C000C0028093BF0260E08AE00E94D90080915B
:1009D000CC0281FD04C061E08AE00E948D008AE0C3
:1009E0008093BA02E8EBF0E0E491E093BB02E4EA22
:1009F000F0E0E491F0E0EE0FFF1FEA57FF4F859122
:100A000094919093BD028093BC020895789484B52C
:100A1000826084BD84B5816084BD85B5826085BDFA
:100A200085B5816085BD80916E00816080936E0088
:100A3000109281008091810082608093810080917A
:100A4000810081608093810080918000816080932B
:100A500080008091B10084608093B1008091B000EB
:100A600081608093B00080917A00846080937A00E6
:100A700080917A00826080937A0080917A00816010
:100A800080937A0080917A00806880937A00109237
:100A9000C100E0912102F091220282E08083E09186
:100AA0001D02F0911E021082E0911F02F0912002BF
:100AB0008FEC808310922902E0912502F0912602AA
:100AC00086E08083E0912302F0912402808180619E
:100AD0008083E0912302F0912402808188608083EA
:100AE000E0912302F0912402808180688083E0916C
:100AF0002302F091240280818F7D808346E050E0C4
:100B000064E271E081E192E00E940A0142E050E07B
:100B10006BE271E081E192E00E940A0181E0809342
:100B200078011092C9021092C8021092C702109266
:100B3000C6021092C5021092C40285E690E090931E
:100B4000CB028093CA029091BA02963108F047C056
:100B500021E230E03093C5022093C40223E630E066
:100B60003093C7022093C60222E430E03093C902DA
:100B70002093C8022091680084E0983048F031E06A
:100B80009E3008F430E081E001C0880F3A95EAF722
:100B9000822B809368002DE630E0983050F02BE6F1
:100BA00030E09E3030F02CE630E0963110F030E04E
:100BB00020E03093C2022093C102292F30E0983008
:100BC00008F08DC081E001C0880F9A95EAF7809304
:100BD000C3028091CA029091CB020197F1F78091F4
:100BE000C8029091C902892B49F1E0917001F091FE
:100BF000710182E0EE3AF80709F1309739F0A389E4
:100C0000B4899C918589809589238C938091CC02AD
:100C10008E7F8093CC0210926F0110926E018EEA4B
:100C200092E09093710180937001E091C102F09184
:100C3000C20280819091C302892B808382E08093DD
:100C4000740161E00E94D90060E082E00E948D00A2
:100C50008EEE92E090937D0180937C0186ED96E08C
:100C6000909373018093720185E090E090937601F8
:100C70008093750110927B0110927A0161E08DE002
:100C80000E94D90060E088E00E94D90060E086E020
:100C90000E94D90060E084E00E94D90011E0C0E029
:100CA000D0E001E0F12CD12C8EEA92E00E948C027F
:100CB000892B91F1FF2001F18EEA92E00E94A202BD
:100CC00080917C0190917D018230910568F3880FBD
:100CD000991F880F991F05970197F1F7E5CF9E306F
:100CE00040F42850310981E001C0880F2A95EAF7C5
:100CF0006ECF2E503109F7CFFF24F39490E8D9122C
:100D0000F12C8EEA92E00E94A202ED2DF0E0E25872
:100D1000FE4F8083D394D4CFFF20E9F180917A01F4
:100D200090917B019C012F5F3F4F30937B0120937B
:100D30007A01909307028093060223B199B189B199
:100D400020952170209300021092010292959F70CD
:100D500091279170909302021092030282958695DA
:100D6000869583708127817080930402109205021A
:100D70008091FE0160E0811161E08DE00E948D00B4
:100D8000209709F48FCF0E947401882309F48ACF39
:100D90000E94000087CFE6E0ED1508F0DEC08091EC
:100DA0007E01882309F468C010927901C09078010F
:100DB0008C1529F080917901882309F475C0ED2CF8
:100DC000F12C8EEF8D0D0E940103970122583E4FAA
:100DD000F9013297408121503109F9012081342FE6
:100DE0002817390709F0BEC060917F016093770131
:100DF0002091800130918101322723273227809171
:100E0000820190918301982789279827A901480F8B
:100E1000591FD0907901D1104EC0633009F04BC0FA
:100E2000E0917501F09176012E173F0708F041C05F
:100E3000E417F507B0F1880FB5E0FB2EF80EC0926D
:100E40007E0180938001E22FF0E0E417F507B8F40B
:100E5000EE0FFF1FE250FE4F90813181E62FF0E050
:100E6000E258FE4F3083E1E0E60FF0E0E258FE4F3B
:100E700090836E5F2F5FE7CF0093790197CF8D5FEF
:100E80000E9401032F2D30E022583E4FF901329786
:100E9000908321503109F90180838F2D0E94C60271
:100EA00003C083E00E941D0380917A0190917B0131
:100EB00040CF82E0F7CF6630B9F440917501509190
:100EC000760124173507A8F7220F331FF901E250E6
:100ED000FE4F9183808386E00E94010390938401FA
:100EE0008093850188E0DACF6031A9F58091840193
:100EF000F9E0EF1AF1088E151F04A1F58091750134
:100F00009091760128173907A0F68417950748F2C3
:100F100037E0822F90E08417950798F4E32FF0E0F4
:100F2000880F991FDC01A250BE4FE258FE4F80810E
:100F300091818927982789278D939C933E5F2F5F06
:100F4000E8CF86E00E94010390938401809385019D
:100F5000D110AACFC7CF81E0A5CF8FEF8D0D8730FD
:100F600008F0A2CF80917A0190917B010196909335
:100F70007B0180937A0198CF86E191E09093AF0254
:100F80008093AE0280917001909171018E5A9240CF
:100F900071F4E091C102F091C20290818091C3028C
:100FA00080958923808310927101109270010895B9
:100FB000EE0FFF1F0590F491E02D099410E0C2E6BA
:100FC000D0E004C0FE010E94D8072196C336D107A5
:100FD000C9F7F894FFCF00000000AA010A01370109
:100FE000F701680146015A010000000030020A01C1
:100FF000C3022F028C02A202170253746172742181
:04100000000D0A00D5
:107E0000112484B714BE81FFF0D085E080938100F7
:107E100082E08093C00088E18093C10086E0809377
:107E2000C20080E18093C4008EE0C9D0259A86E02C
:107E300020E33CEF91E0309385002093840096BBD3
:107E4000B09BFECF1D9AA8958150A9F7CC24DD24C4
:107E500088248394B5E0AB2EA1E19A2EF3E0BF2EE7
:107E6000A2D0813461F49FD0082FAFD0023811F036
:107E7000013811F484E001C083E08DD089C08234E0
:107E800011F484E103C0853419F485E0A6D080C0E4
:107E9000853579F488D0E82EFF2485D0082F10E0AE
:107EA000102F00270E291F29000F111F8ED06801E7
:107EB0006FC0863521F484E090D080E0DECF843638
:107EC00009F040C070D06FD0082F6DD080E0C81688
:107ED00080E7D80618F4F601B7BEE895C0E0D1E017
:107EE00062D089930C17E1F7F0E0CF16F0E7DF06D8
:107EF00018F0F601B7BEE89568D007B600FCFDCFD4
:107F0000A601A0E0B1E02C9130E011968C91119780
:107F100090E0982F8827822B932B1296FA010C0160
:107F200087BEE89511244E5F5F4FF1E0A038BF0790
:107F300051F7F601A7BEE89507B600FCFDCF97BE46
:107F4000E89526C08437B1F42ED02DD0F82E2BD052
:107F50003CD0F601EF2C8F010F5F1F4F84911BD097
:107F6000EA94F801C1F70894C11CD11CFA94CF0C13
:107F7000D11C0EC0853739F428D08EE10CD085E9AC
:107F80000AD08FE07ACF813511F488E018D01DD067
:107F900080E101D065CF982F8091C00085FFFCCF94
:107FA0009093C60008958091C00087FFFCCF809118
:107FB000C00084FD01C0A8958091C6000895E0E648
:107FC000F0E098E1908380830895EDDF803219F02E
:107FD00088E0F5DFFFCF84E1DECF1F93182FE3DFCA
:107FE0001150E9F7F2DF1F91089580E0E8DFEE27F6
:047FF000FF270994CA
:027FFE00040479
:00000001FF
