:100000000C94CE000C94F6000C94F6000C94F600C0
:100010000C94F6000C94F6000C94F6000C94F60088
:100020000C94F6000C94F6000C9407070C948507CA
:100030000C94F6000C94F6000C94F6000C94F60068
:100040000C94F6000C94F6000C94F6000C94F60058
:100050000C94F6000C94F6000C94F6000C94BD067B
:100060000C94F6000C94DD090C94B7090C94F6007E
:100070000C94F6000C94F6000C94F6000C94F60028
:100080000C94F6000C94F6000C94F6000C94F60018
:100090000C94F6000C94F6000C94F6000C94F60008
:1000A0000C94F6000C94F6000C94F600080B000279
:1000B0000202000009040000010202000005240001
:1000C0001001052401010104240206052406000193
:1000D0000705810310004009040100020A00000026
:1000E00007050202400000070583024000000403E8
:1000F000090412010002EF02014041233680000191
:100100000102030141726475696E6F204C4C43001B
:1001100041726475696E6F204C656F6E6172646FB9
:10012000000000000200090F0000030401000C00A1
:1001300000000000000000000000000000000000BF
:1001400000000000250028002B002E0031000000D8
:100150000000240027002A002D00300004040404BD
:10016000040304050202020204030202020206065C
:100170000606060604040202020404040802011032
:1001800040804010204080408008020401804020D0
:10019000100201108010204040200F0A11241FBEC1
:1001A000CFEFDAE0DEBFCDBF11E0A0E0B1E0ECEED2
:1001B000FEE102C005900D92A835B107D9F723E002
:1001C000A8E5B1E001C01D92A936B207E1F710E041
:1001D000CEECD0E004C02197FE010E946E0FCD3C12
:1001E000D107C9F70E94C90A0C94740F0C9400003F
:1001F00090E0FC01E558FE4F2491845A9E4FFC018B
:100200008491882399F090E0880F991FFC01E25BAC
:10021000FE4FA591B491FC01E05CFE4F8591949155
:100220008FB7F894EC91E22BEC938FBF0895FC010B
:1002300080916F02882311F13FB7F89482E0809398
:10024000E9002091F200822F90E01816190614F4AC
:1002500081E090E0882339F0289844E640936E02CC
:100260004091F1004083222339F02091F2002111C6
:1002700003C02BE62093E8003FBF08958FEF9FEF68
:100280000895282F30E0F901EF5DFE4F9491F901B8
:10029000E558FE4F8491245A3E4FF90124912223C0
:1002A00009F430C09923E9F091509F30D0F4E92F40
:1002B000F0E0E35AFE4F0C946E0F8B018F016C013E
:1002C00083018701710171017101920198019C0103
:1002D000A001A6017101AA01909180009F779093DF
:1002E0008000E22FF0E0EE0FFF1FE05CFE4FA591D3
:1002F000B4919FB7F894EC91611132C080958E2330
:100300008C939FBF0895909180009F7DE8CF90913E
:100310008000977FE4CF94B59F7794BDE2CF94B5EA
:100320009F7DFBCF909190009F7790939000D9CFC5
:10033000909190009F7DF9CF90919000977FF5CF9D
:100340009091C0009F779093C000CBCF9091C00058
:100350009F7DF9CF9091C200977F9093C200C1CF4B
:100360008E2BCECF3FB7F89480916A0290916B02AA
:10037000A0916C02B0916D0226B5A89B05C02F3FDD
:1003800019F00196A11DB11D3FBFBA2FA92F982FBB
:100390008827BC01CD01620F711D811D911D42E0B6
:1003A000660F771F881F991F4A95D1F70895CF923E
:1003B000DF92EF92FF920E94B2016B017C010E94DA
:1003C000B2016C197D098E099F09683E7340810551
:1003D0009105A8F3FF90EF90DF90CF9008952FB78D
:1003E000F894609166027091670280916802909122
:1003F00069022FBF08958093E9008091F20088235D
:1004000019F08AE38093E8000895409166015091C5
:100410006701209164013091650142175307B4F4DC
:100420009091E8009570E1F39091E80092FD19C079
:100430008093F100809166019091670101968F731E
:100440009927892B19F48EEF8093E800809166013B
:10045000909167010196909367018093660181E016
:10046000089580E00895EF92FF920F931F93CF932A
:10047000DF93F82E192FE62E042F81E0860F880FC8
:100480000E94050283E00E940502CF2DD12FEC0EC1
:10049000FD2EF11CCE15DF05B9F007FF13C0FE01DC
:1004A00084910E940502182F80E00E94050281239A
:1004B00021968111EFCFDF91CF911F910F91FF9086
:1004C000EF9008958881EDCF81E0F5CFDF92EF9234
:1004D000FF920F931F93CF93DF93D82E8A01EB01E6
:1004E0007B01E40EF51ECE15DF0559F0D7FE12C0D4
:1004F000FE0184910E94050221968111F4CF0FEF35
:100500001FEFC801DF91CF911F910F91FF90EF90E6
:10051000DF9008958881EECF2FB7F894877080938D
:10052000E9009091E800892F807295FF04C09091B6
:10053000F20080E4891B2FBF08957F928F929F92D3
:10054000AF92BF92CF92DF92EF92FF920F931F93E1
:10055000CF93DF93C82E8B017A0180916F028111B6
:1005600010C08FEF9FEFDF91CF911F910F91FF9000
:10057000EF90DF90CF90BF90AF909F908F907F9043
:10058000089580916A0180FF05C08091E00082603B
:100590008093E000CE2DDF2DD12C8AEFB82E8C2D4C
:1005A0008770982E8C2D8072882E8C2D8074782EDA
:1005B0009AE3A92E209719F4DD2009F44EC08C2D62
:1005C0000E948C02811106C0BA94BB2051F20E9495
:1005D000D701F0CF8C171D0611F00CF08C2F9FB7B0
:1005E000F8949092E9002091E80025FD02C09FBF99
:1005F000E1CF282F30E0C21BD30B882029F0815097
:10060000A0F01092F100FBCFF801C7FC0AC08150A6
:1006100050F041914093F100FACF44914093F100A2
:1006200031968150D0F7020F131FDD2021F0A092E8
:10063000E800D12CDCCF8091E80085FD07C0A092B6
:10064000E800DD24D394209791F2F3CF209779F638
:10065000772069F2A092E800CACF5D9884E6809383
:100660006901C70180CF0F931F93CF93DF9300D011
:1006700000D0CDB7DEB799E0998399E99A838B834F
:100680008FE78C830DE513E0F801838144E050E0AF
:10069000BE016F5F7F4F8F5F0E949D02F8018381D3
:1006A0008F5F0E94FB010F900F900F900F90DF91D2
:1006B000CF911F910F9108950F931F93CF93DF93C5
:1006C00000D000D0CDB7DEB798E0998399E89A833F
:1006D0008B831C820DE513E0F801838144E050E038
:1006E000BE016F5F7F4F8F5F0E949D02F801838183
:1006F0008F5F0E94FB010F900F900F900F90DF9182
:10070000CF911F910F910895615030F02091F10029
:10071000FC0120830196F8CF289884E680936E022E
:100720000895AF92BF92CF92DF92EF92FF920F9314
:100730001F93CF93DF936C017B018B01040F151F77
:10074000EB015E01AE18BF08C017D10759F06991DF
:10075000D601ED91FC910190F081E02DC601099543
:10076000892B79F7C501DF91CF911F910F91FF90F0
:10077000EF90DF90CF90BF90AF90089580915C0193
:1007800081110DC082E08093580184E0809359016B
:1007900010925B0110925A0181E080935C0188E520
:1007A00091E008950F931F93CF93DF931F92CDB7DE
:1007B000DEB782E0898342E450E06CEA70E080E8D2
:1007C0000E9466020E94BE03DC0112960D911C91EC
:1007D0000115110589F0D801ED91FC910280F3819A
:1007E000E02DBE016F5F7F4FC801099597FD04C0E2
:1007F000F80100851185ECCF89810F90DF91CF91B1
:100800001F910F910895FC01538D448D252F30E0E9
:10081000842F90E0821B930B541710F0CF9608950D
:1008200001970895FC01918D828D981761F0A28D3A
:10083000AE0FBF2FB11D5D968C91928D9F5F9F7300
:10084000928F90E008958FEF9FEF0895FC01918DB6
:10085000828D981731F0828DE80FF11D858D90E023
:1008600008958FEF9FEF0895FC01918D228D892FC0
:1008700090E0805C9F4F821B91098F7399270895A8
:1008800080E792E00E94340421E0892B09F420E003
:10089000822F089580E090E0892B29F00E94400487
:1008A00081110C9400000895FC01A48DA80FB92FAC
:1008B000B11DA35ABF4F2C91848D90E001968F7388
:1008C0009927848FA689B7892C93A089B1898C91A7
:1008D00082748C93938D848D981306C00288F3895B
:1008E000E02D80818F7D80830895EF92FF920F939A
:1008F0001F93CF93DF93EC0181E0888F9B8D8C8DCC
:10090000981319C0E889F989808185FF14C09FB7C1
:10091000F894EE89FF896083E889F989808182747F
:1009200080839FBF81E090E0DF91CF911F910F9175
:10093000FF90EF900895F62E0B8D10E00F5F1F4F84
:100940000F731127E02E8C8D8E110CC00FB607FC93
:10095000FACFE889F989808185FFF5CFCE010E9421
:100960005404F1CFEB8DEC0FFD2FF11DE35AFF4F37
:10097000F0829FB7F8940B8FEA89FB8980818062AF
:10098000CFCFCF93DF93EC01888D8823B9F0AA896C
:10099000BB89E889F9898C9185FD03C0808186FD3A
:1009A0000DC00FB607FCF7CF8C9185FFF2CF808189
:1009B00085FFEDCFCE010E945404E9CFDF91CF91A6
:1009C0000895CF93DF93EC0180910B01882331F0E0
:1009D00083E00E949D021816190634F081E090E031
:1009E0009B838A8380E090E0DF91CF910895CF933D
:1009F000DF931F92CDB7DEB76983DC01ED91FC91E7
:100A00000280F381E02D41E050E0BE016F5F7F4F37
:100A100009950F90DF91CF91089583E00C94FB012D
:100A200083E00E948C0290E00895CF93DF931F92A1
:100A3000CDB7DEB7FC018485958597FD08C02FEF03
:100A40003FEF358724870F90DF91CF910895CE0136
:100A500001960E941701019719F4898190E0F3CF64
:100A60008FEF9FEFF0CF0F931F93CF93DF931F92E2
:100A7000CDB7DEB78C01FC018485958597FF0BC04F
:100A8000CE0101960E941701019771F4898190E0CF
:100A9000F80195878487F801848595850F90DF910B
:100AA000CF911F910F9108958FEF9FEFF1CFFC0130
:100AB0008485958597FD0BC09FB7F89482E080935D
:100AC000E9008091F2009FBF90E0019608959FB7E2
:100AD000F89482E08093E9008091F2009FBF90E05B
:100AE0000895FF920F931F93CF93DF93F82EC09139
:100AF0006E01C23020F061E08C2F0E94410100E8BD
:100B000011E0D0E0DF1549F0F80161918F0180E735
:100B100092E00E947504DF5FF5CF80E792E00E94CB
:100B2000C10480916C0190916D018230910538F083
:100B3000880F991F880F991F05970197F1F7C23009
:100B400020F060E08C2F0E9441010E94EF01609331
:100B50007201709373018093740190937501DF911A
:100B6000CF911F910F91FF900895E0E8F1E090E0A0
:100B70002FEF3FEF981791F04191242748E0B901FA
:100B80006170772736952795672B21F051E025274F
:100B900050EA3527415099F79F5FECCF922F832F72
:100BA000089590E080E0089580E008950F931F93EA
:100BB000CF93DF93CDB7DEB7C456D1090FB6F89403
:100BC000DEBF0FBECDBFFC01DB019C919E5F9C93FD
:100BD0009E01295F3F4F8AE5D9011D928A95E9F769
:100BE00088E089838BE08A8322E02C8391E09D83D7
:100BF0009E8339E0398764E06A879E879F873A8BB6
:100C000044E24B8B9C8BA0E0B1E0BE8BAD8B09E046
:100C100010E0188F0F8B998F3B8F6C8F2F8F98A3BD
:100C200053E059A387E08CA34DA39EA3B8A7AFA31D
:100C3000A1E4B0E0BAA7A9A786E08BA74CA72DA78F
:100C40009EA79FA789AB4AAB2BAB2CAB2DAB3FAB81
:100C500048AF59AF9AAF5BAF9CAF2DAF9EAF219617
:100C60003FAF219722964FAF229723965FAF2397EE
:100C700024962FAF249725966FAF259726969FAF82
:100C8000269727969FAF279728969FAF28972A9653
:100C90003FAF2A9745E02B964FAF2B972D962FAF5E
:100CA0002D9760E470E02F967FAF6EAF2F9763961D
:100CB0004FAF639785E264968FAF649765969FAF59
:100CC000659766969FAF669767969FAF679768969A
:100CD0003FAF689769964FAF69976B962FAF6B9749
:100CE0006D967FAF6EAF6D97A1964FAFA197A2960D
:100CF0008FAFA297A3969FAFA397A4969FAFA497F9
:100D0000A5965FAFA59792819B839B879F5F9A8FE4
:100D10009D8F83812C968FAF2C978F5F80686A960A
:100D20008FAF6A9744E650E0BE016F5F7F4F80E06F
:100D30000E946602CC59DF4F0FB6F894DEBF0FBE9B
:100D4000CDBFDF91CF911F910F910895FC010190CC
:100D50000020E9F73197AF01481B590BBC018DE02A
:100D600093E00C94E10484E0E3E4F1E0DB01019022
:100D70000D928A95E1F784E008951F920F920FB6C5
:100D80000F9211242F933F938F939F93AF93BF9311
:100D90008091660290916702A0916802B091690209
:100DA0003091650223E0230F2D3758F50196A11DE0
:100DB000B11D209365028093660290936702A09311
:100DC0006802B093690280916A0290916B02A091CF
:100DD0006C02B0916D020196A11DB11D80936A0253
:100DE00090936B02A0936C02B0936D02BF91AF9190
:100DF0009F918F913F912F910F900FBE0F901F9059
:100E0000189526E8230F0296A11DB11DD2CF1F927F
:100E10000F920FB60F9211242F933F934F935F932E
:100E20006F937F938F939F93AF93BF93CF93EF93E2
:100E3000FF93C091E1008091E100837F8093E10006
:100E4000C3FF0FC01092E90081E08093EB00109285
:100E5000EC0082E38093ED0010926F0288E08093B3
:100E6000F000C2FF1BC083E00E94FB01809169017A
:100E7000882341F08091690181508093690181113B
:100E800001C05D9A80916E02882341F080916E02CC
:100E9000815080936E02811101C0289AC4FF23C043
:100EA0008091E2008E7E81608093E2008091E1007B
:100EB0008F7E8093E10080916A018E7E80618093B5
:100EC0006A01FF91EF91CF91BF91AF919F918F9167
:100ED0007F916F915F914F913F912F910F900FBE36
:100EE0000F901F901895C0FFECCF8091E2008E7E8E
:100EF00080618093E2008091E1008E7E8093E1002A
:100F000080916A018E7E8160DACF1F920F920FB6B8
:100F10000F921124CF92DF92EF92FF920F931F93C3
:100F20002F933F934F935F936F937F938F939F93F1
:100F3000AF93BF93EF93FF93CF93DF93CDB7DEB71C
:100F40006C97DEBFCDBF1092E9008091E80083FF6F
:100F500025C068E0CE0145960E94840382EF80930D
:100F6000E8008D8987FF39C09091E80090FFFCCFA1
:100F7000982F907609F034C19E894F89588D2F891A
:100F8000F88C911131C0803861F580916B018093AC
:100F9000F1001092F1008EEF8093E8006C960FB68E
:100FA000F894DEBF0FBECDBFDF91CF91FF91EF91DF
:100FB000BF91AF919F918F917F916F915F914F9171
:100FC0003F912F911F910F91FF90EF90DF90CF9065
:100FD0000F900FBE0F901F9018959EEF9093E80012
:100FE000C7CF1092F100D5CF913059F48111D3CFF2
:100FF0004130510581F680916B018D7F80936B01AB
:10100000CACF933049F48111C6CF4130510519F64A
:1010100080916B018260F2CF953041F48091E800BD
:1010200080FFFCCF20682093E300B5CF963009F015
:10103000A9C00B8D1C8D22E01092E900109267016F
:1010400010926601F2122EC0109265011092640196
:101050000E94D2031F8299E09983FA8291E09E83D5
:1010600090EA98879AEF99872091660130916701FD
:10107000275F3F4F3C832B838D831092E9001092B2
:10108000670110926601109365010093640149E0C5
:1010900050E0BE016F5F7F4F80E00E9466020E94B9
:1010A000D20379CF10936501009364010E94BE03BF
:1010B000DC0112960D911C910115110509F451C125
:1010C000D801ED91FC910480F581E02DBE016B5EAD
:1010D0007F4FC8010995009709F03EC1F8010085CE
:1010E0001185EACFF3E0FF120EC08F89882309F43F
:1010F00040C0823061F440E860E180E191E00E940C
:101100003302811148CF81E28093EB0047CF8130D9
:1011100029F440E86BE084E091E0F1CF833099F767
:101120000E94BE03DC011296ED90FC908E010F5FD1
:101130001F4F6801E114F10479F0D701ED91FC91A2
:101140000680F781E02DB801C7010995080F111D30
:10115000F701E084F184EECFD8011C92F6010190F2
:101160000020E9F73197BF016C197D0940E0C60105
:10117000C6CF6EEE70E0FB01449150E080E80E9423
:10118000660209CF973009F4BECF983021F481E090
:101190008093F10000CF993009F0FDCE837009F003
:1011A000B2CFEDE0F1E081E031E096E3219122233E
:1011B00071F08093E9003093EB00DF0111972C91DF
:1011C0002093EC009093ED008F5F873079F78EE7E6
:1011D0008093EA001092EA008F8980936F02DBCE41
:1011E0008B8D9C8D1092E900109267011092660120
:1011F0009093650180936401898D811192C08E89DD
:101200009D89913A49F4813209F07DCF47E050E061
:1012100064E071E080E0B3CF913209F074CF8332A3
:1012200069F48F89988DB0E0A0E0809300019093DD
:101230000101A0930201B0930301ADCE803269F4A5
:101240008091E80082FFFCCF67E084E091E00E949B
:1012500084038BEF8093E8009ECE823209F09BCE10
:101260008F8980930B01EEEFFFE7859194918B3F7F
:101270009C4D51F1E0E0F8E080910401909105016E
:10128000A0910601B0910701803B9440A105B105F2
:10129000F1F480910B0180FD1AC0EE3F8AE0F8075F
:1012A00089F587E797E79183808380916000809339
:1012B000680188E19BE00FB6F894A89580936000E0
:1012C0000FBE9093600067CEEEEFFAE0D5CF80813D
:1012D00091818737974709F05ECEA895809160008D
:1012E0008861809360008091680180936000EE3F88
:1012F0002AE0F20789F08091FE0A9091FF0A91831B
:10130000808349CE808191818737980751F29093ED
:10131000FF0A8093FE0AC5CF1092FF0A1092FE0AC0
:101320003ACE0E94BE03DC0112960D911C9101156C
:10133000110509F4E8CED801ED91FC910190F081FE
:10134000E02DBE016B5E7F4FC8010995811123CE50
:10135000F80100851185EBCF181619060CF41BCE89
:10136000D2CEF1E0FF12BECE62EF70E004CF1F924A
:101370000F920FB60F9211242F933F934F935F93C9
:101380006F937F938F939F93AF93BF93EF93FF934D
:1013900080E792E00E945404FF91EF91BF91AF91DA
:1013A0009F918F917F916F915F914F913F912F917D
:1013B0000F900FBE0F901F9018951F920F920FB6AF
:1013C0000F9211242F938F939F93EF93FF93E091AC
:1013D0008002F09181028081E0918602F091870283
:1013E00082FD1BC09081809189028F5F8F73209155
:1013F0008A02821741F0E0918902F0E0E059FD4F46
:10140000958F80938902FF91EF919F918F912F91FA
:101410000F900FBE0F901F9018958081F4CFCF933F
:10142000DF93109273021092720288EE93E0A0E0B4
:10143000B0E08093740290937502A0937602B0930B
:10144000770227E131E030937102209370022DEC96
:1014500030E030937D0220937C022CEC30E030931E
:101460007F0220937E0228EC30E0309381022093AB
:10147000800229EC30E030938302209382022AEC30
:1014800030E030938502209384022EEC30E03093DC
:101490008702209386021092890210928A0210928B
:1014A0008B0210928C021092100310920F03809303
:1014B000110390931203A0931303B093140389E2D2
:1014C00091E090930E0380930D038FEF9FEF909325
:1014D0001A038093190382E080936103809362036F
:1014E00087E693E09093640380936303109266030E
:1014F000109265038BE391E090935E0380935D030C
:1015000080E88093670381E8809368030E94BE03AC
:10151000FC01818190916103482F490F5527551F88
:10152000483051059CF5A281B381109709F52DE54E
:1015300033E033832283208120935F038093600311
:1015400080916203820F808320916303A22FB09168
:1015500064038A2F821B8917C8F481813D91C82FAB
:10156000D0E0C45FDE4F38838F5F8183F2CFD90133
:1015700018962D913C91199721153105C1F72DE54C
:1015800033E019963C932E931897D5CFDF91CF91E6
:101590000895CF93DF93CDB7DEB7A3970FB6F89436
:1015A000DEBF0FBECDBF789484B5826084BD84B5A4
:1015B000816084BD85B5826085BD85B5816085BD4E
:1015C00080916E00816080936E0010928100809106
:1015D000810082608093810080918100816080938E
:1015E00081008091800081608093800080919100D3
:1015F000826080939100809191008160809391003E
:10160000809190008160809390008091C1008460FF
:101610008093C1008091C10082608093C10080915D
:10162000C10081608093C1008091C300816080937C
:10163000C3008091C00082608093C0008091C2008E
:1016400081608093C20080917A00846080937A00E8
:1016500080917A00826080937A0080917A00816024
:1016600080937A0080917A00806880937A0010924B
:101670006F0210926B0110926A018091D700816015
:101680008093D70080EA8093D80089B5806189BDB6
:1016900089B5826089BD09B400FEFDCF0E94D701E3
:1016A0008091D8008F7C80618093D8008091E00089
:1016B000807F8093E0008091E1008E7E8093E10046
:1016C0008DE08093E200559A209A8FEF9FEF9093E0
:1016D0001A038093190388E491E00E94A60611E0A2
:1016E0001093190283E080931A0210921C02109248
:1016F0001B0284E090E090931E0280931D0281E122
:1017000092E09093200280931F0210933F0280E1A9
:1017100080934002109242021092410281E090E0D8
:1017200090934402809343028AE092E090934602B1
:1017300080934502E0918002F091810292E09083D3
:10174000E0917C02F0917D021082E0917E02F091A6
:101750007F0283E3808310928802E0918402F091FB
:10176000850286E08083E0918202F091830280818D
:1017700080618083E0918202F091830280818860A1
:101780008083E0918202F09183028081806880836F
:10179000E0918202F091830280818F7D808390931B
:1017A0006E0182E00E94F80060E082E00E94410148
:1017B0008EEE92E0909379018093780186ED96E029
:1017C00090936D0180936C0110933E02109364021C
:1017D0001093040210927F0110927A0188EE93E038
:1017E00090937101809370018AE090E0909377016B
:1017F0008093760180936F0182E090E090930602DF
:10180000809305021092720110927301109274017C
:101810001092750110927B0110927C0110927D0153
:1018200010927E018DE00E94F800E6E2EE2EFAE0D2
:101830004F2E512C612C712CA0E02A2EA0E03A2EC4
:10184000FF24F39420910502309106028091040256
:10185000882309F481C180910202909103023BA385
:101860002AA350E040E08217930711F490E080E053
:10187000E89E8001E99E100D1124075E1D4FF801BE
:1018800065A16111CAC04F5F5F4F2417350709F08A
:10189000C2C090930302809302021093010200934E
:1018A00000029BA38AA3C0901302D09014024601A9
:1018B0000D2C000CAA08BB08B7FED8C26DE28DE063
:1018C00093E00E94F70422273327A9012819390938
:1018D0004A095B0919A28E010F5D1F4FCA01B901A8
:1018E000A30192010E944C0F605DF80162938F0189
:1018F000211531054105510589F70115110519F02B
:10190000C8010E94A60684E591E00E94A606009107
:1019100015021091160280901702909018020E94F2
:10192000EF0120910D0230910E0240910F02509173
:101930001002621B730B840B950B693E734081058B
:101940009105B0F00E94EF0160930D0270930E02BA
:1019500080930F029093100280910C02282F30E0A8
:1019600030930B0220930A0221E0822780930C021D
:101970008AA19BA161E0029709F460E08DE00E94DA
:101980004101C114D10449F080910902811105C0BF
:1019900084E20E943303F09209020115110549F017
:1019A00080910802811105C086E20E943303F09203
:1019B00008028114910449F080910702811105C049
:1019C00086E20E943303F0920702CD2829F484E2D4
:1019D0000E945C0310920902012B29F486E20E9406
:1019E0005C0310920802892829F486E20E945C03B5
:1019F00010920702809160038F5F0E94FB01211407
:101A0000310409F41FCF0E944004882309F41ACF3F
:101A10000E94000017CF9BA38AA30196662309F4B6
:101A200022CF90930302809302021093010200934D
:101A3000000210920402F801808591850196918739
:101A40008087808180938001818180938101928150
:101A500023812093820190938301A48195819093A7
:101A60008401A0938501803109F06BC08A2F880F13
:101A700079E0D72ED80E8093860130E020E097E001
:101A80002A17D0F4A901440F551FF8016681778108
:101A9000FA01E60FF71F40815181E92FF0E0E0588D
:101AA000FE4F5083E1E0E90FF0E0E058FE4F408345
:101AB0009E5F2F5F3F4FE4CF895F0E94B5052D2DBC
:101AC00030E020583E4FF901329790832150310980
:101AD000F90180838D2D0E947105F80180818111AB
:101AE0000CC0F0927F010E94EF0160937B01709324
:101AF0007C0180937D0190937E0180917F01811113
:101B0000B9C0D0907A01D110B5C0912C80E792E095
:101B10000E943404892B99F1DD2009F180E792E0DD
:101B20000E94120480917801909179018230910590
:101B300068F3880F991F880F991F05970197F1F790
:101B4000E5CF86E00E94B5059093860180938701DA
:101B500088E00E947105D1CF3BA32AA3CECFDD241C
:101B6000D394F0E89F12D12C80E792E00E941204F7
:101B7000E92DF0E0E058FE4F80839394D3CF00919D
:101B80000002109101028FEF890D843010F0DD20EA
:101B900049F0F801848D958D0196958F848FF09290
:101BA0007A015EC0992009F465C090918001F80126
:101BB0008081981355C18091810187FF1EC080915B
:101BC0008201823051F0833071F0813091F4868D42
:101BD000978D0196978F868FE2CF80A191A1019674
:101BE00091A380A3DCCF82A193A1019693A382A3AA
:101BF000D6CF84A18F5F84A3D2CF918189132AC1CC
:101C000090918201803109F0DEC0C0908401D090B3
:101C10008501DC24CD24DC2480908601909087010E
:101C200098248924982486E00E94B5052091820199
:101C300030918301322723273227F80142815381D3
:101C40004217530709F0F9C024813581C216D30623
:101C500009F0F3C08816990609F0EFC0F0927F01F1
:101C60000E94EF0160937B0170937C0180937D0162
:101C700090937E010E94EF0100917B0110917C0105
:101C800020917D0130917E01AB01BC01401B510BC5
:101C9000620B730B8091760190917701B0E0A0E028
:101CA000009100021091010220917F01222391F006
:101CB00084179507A607B70768F410927F01F8010B
:101CC000228533852F5F3F4F33872287118A108A01
:101CD000F092040220917A01222379F0841795076B
:101CE000A607B70750F410927A01F801808991890C
:101CF0000196918B808BF0920402809104028111F5
:101D000028C00E94EF018090720190907301A09012
:101D10007401B0907501AB01BC01481959096A09F9
:101D20007B098091700190917101B0E0A0E084176F
:101D30009507A607B70768F4F80182899389019689
:101D4000938B828B808991890196918B808BF09205
:101D5000040220916F01F8018089918928171906E2
:101D600019F415A2118A108A80910402882309F4BB
:101D70009ACDF8018289938924893589820F931F2E
:101D800026893789820F931F208D318D820F931FF3
:101D9000228D338D820F931F248D358D820F931FDB
:101DA000268D378D820F931F20A131A1820F931FA3
:101DB00022A133A1820F931FB0E0A0E08487958712
:101DC000A687B78770CD8480882D880F89133CC083
:101DD000C92CD12C8EEF890D0E94B5059601205893
:101DE0003E4F6901F9013297208131E0C31AD108D1
:101DF000F601308123273227232728173907E9F4F2
:101E000090E080E043E0881508F028CF642F70E070
:101E1000DC01AA0FBB1FF80126813781A20FB31F77
:101E2000FB01E058FE4F20813181232732272327F1
:101E30002D933C934E5F0196E6CFF801828D938DF2
:101E40000196938F828FABCE808D918D0196918F6D
:101E5000808FA5CE868997890196978B868B9FCE9A
:101E6000848995890196958B848B99CEA5019401DF
:101E700019A28E010F5D1F4FCA01B901A301920182
:101E80000E944C0F605DF80162938F0121153105AE
:101E90004105510589F731CDA1E21A2EAA1BBB1BC2
:101EA000FD010DC0AA1FBB1FEE1FFF1FA217B30726
:101EB000E407F50720F0A21BB30BE40BF50B661F3C
:101EC000771F881F991F1A9469F760957095809500
:101ED00090959B01AC01BD01CF010895EE0FFF1F4E
:0C1EE0000590F491E02D0994F894FFCFD8
:101EEC00FFFFFFFF00E100000000000000C1808147
:101EFC0000000000000000750491030304C10434C9
:101F0C00041204260400000000F704E10410050D7F
:101F1C000557051505330500000000D405D605D17D
:101F2C0005B3064D494449004D425F534552494162
:081F3C004C3A20000D0A0000E0
:00000001FF
