:100000000C9492000C94BA000C94BA000C94BA00B0
:100010000C94BA000C94BA000C94BA000C94BA0078
:100020000C94BA000C94BA000C94D5040C945305AB
:100030000C94BA000C94BA000C94BA000C94BA0058
:100040000C94BA000C94BA000C94BA000C94BA0048
:100050000C94BA000C94BA000C94BA000C948B0463
:100060000C94BA000C94BA000C94BA000C94BA0028
:100070000C94BA000C94BA000C94BA000C94BA0018
:100080000C94BA000C94BA000C94BA000C94BA0008
:100090000C94BA000C94BA000C94BA000C94BA00F8
:1000A0000C94BA000C94BA000C94BA00080B00022D
:1000B0000202000009040000010202000005240001
:1000C0001001052401010104240206052406000193
:1000D0000705810310004009040100020A00000026
:1000E00007050202400000070583024000000403E8
:1000F000090412010002EF02014041233680000191
:100100000102030141726475696E6F204C4C43001B
:1001100041726475696E6F204C656F6E6172646FB9
:100120000000850711241FBECFEFDAE0DEBFCDBF90
:1001300011E0A0E0B1E0E6EEF1E102C005900D9221
:10014000A633B107D9F721E0A6E3B1E001C01D92C3
:10015000A43BB207E1F710E0C2E9D0E004C0219768
:10016000FE010E94EB08C139D107C9F70E940108BE
:100170000C94F1080C940000FC0180915701882335
:1001800011F13FB7F89482E08093E9002091F200EA
:10019000822F90E01816190614F481E090E088236D
:1001A00039F0289844E6409356014091F10040838D
:1001B000222339F02091F200211103C02BE6209375
:1001C000E8003FBF08958FEF9FEF08953FB7F89481
:1001D0008091520190915301A0915401B091550129
:1001E00026B5A89B05C02F3F19F00196A11DB11D92
:1001F0003FBFBA2FA92F982F8827BC01CD01620FCE
:10020000711D811D911D42E0660F771F881F991F88
:100210004A95D1F708958F929F92AF92BF92CF9255
:10022000DF92EF92FF924B015C010E94E6006B01AE
:100230007C010E94E6006C197D098E099F09683EC9
:10024000734081059105A8F321E0821A9108A10865
:10025000B10888EEC80E83E0D81EE11CF11C8114A1
:100260009104A104B10429F7FF90EF90DF90CF90A3
:10027000BF90AF909F908F9008958093E9008091F8
:10028000F200882319F08AE38093E80008954091F2
:1002900044015091450120914201309143014217A0
:1002A0005307B4F49091E8009570E1F39091E80061
:1002B00092FD19C08093F100809144019091450115
:1002C00001968F739927892B19F48EEF8093E8009C
:1002D000809144019091450101969093450180934E
:1002E000440181E0089580E00895EF92FF920F931A
:1002F0001F93CF93DF93F82E192FE62E042F81E062
:10030000860F880F0E94470183E00E944701CF2D8E
:10031000D12FEC0EFD2EF11CCE15DF05B9F007FF35
:1003200013C0FE0184910E944701182F80E00E94B3
:100330004701812321968111EFCFDF91CF911F914A
:100340000F91FF90EF9008958881EDCF81E0F5CF78
:10035000DF92EF92FF920F931F93CF93DF93D82EEC
:100360008A01EB017B01E40EF51ECE15DF0559F085
:10037000D7FE12C0FE0184910E944701219681118F
:10038000F4CF0FEF1FEFC801DF91CF911F910F91B5
:10039000FF90EF90DF9008958881EECF2FB7F8940B
:1003A00087708093E9009091E800892F807295FF13
:1003B00004C09091F20080E4891B2FBF08957F92C2
:1003C0008F929F92AF92BF92CF92DF92EF92FF9265
:1003D0000F931F93CF93DF93C82E8B017A018091E7
:1003E0005701811110C08FEF9FEFDF91CF911F91C7
:1003F0000F91FF90EF90DF90CF90BF90AF909F90C4
:100400008F907F9008958091480180FF05C0809172
:10041000E00082608093E000CE2DDF2DD12C8AEFAA
:10042000B82E8C2D8770982E8C2D8072882E8C2D56
:100430008074782E9AE3A92E209719F4DD2009F410
:1004400052C08C2D0E94CE0181110AC0BA94BB20EB
:1004500051F261E070E080E090E00E940B01ECCF8F
:100460008C171D0611F00CF08C2F9FB7F89490920A
:10047000E9002091E80025FD02C09FBFDDCF282FB5
:1004800030E0C21BD30B882029F08150A0F01092DD
:10049000F100FBCFF801C7FC0AC0815050F0419138
:1004A0004093F100FACF44914093F100319681508E
:1004B000D0F7020F131FDD2021F0A092E800D12C0D
:1004C000DCCF8091E80085FD07C0A092E800DD2424
:1004D000D394209791F2F3CF209779F6772069F2A1
:1004E000A092E800CACF5D9884E680934701C701D7
:1004F0007CCF0F931F93CF93DF9300D000D0CDB765
:10050000DEB799E0998399E99A838B838FE78C838F
:1005100008EA11E0F801838144E050E0BE016F5F1A
:100520007F4F8F5F0E94DF01F80183818F5F0E9400
:100530003D010F900F900F900F90DF91CF911F9181
:100540000F9108950F931F93CF93DF9300D000D0A6
:10055000CDB7DEB798E0998399E89A838B831C82A4
:1005600008EA11E0F801838144E050E0BE016F5FCA
:100570007F4F8F5F0E94DF01F80183818F5F0E94B0
:100580003D010F900F900F900F90DF91CF911F9131
:100590000F910895615030F02091F100FC0120830B
:1005A0000196F8CF289884E68093560108958091AB
:1005B0003A0181110DC082E08093360184E080937E
:1005C0003701109239011092380181E080933A018D
:1005D00086E391E008950F931F93CF93DF931F92CB
:1005E000CDB7DEB782E0898342E450E06CEA70E088
:1005F00080E80E94A8010E94D702DC0112960D91AA
:100600001C910115110589F0D801ED91FC91028032
:10061000F381E02DBE016F5F7F4FC801099597FD03
:1006200004C0F80100851185ECCF89810F90DF911E
:10063000CF911F910F910895CF93DF93EC0180919B
:100640000B01882331F083E00E94DF0118161906A0
:1006500034F081E090E09B838A8380E090E0DF913A
:10066000CF910895CF93DF931F92CDB7DEB7698303
:10067000DC01ED91FC910280F381E02D41E050E03E
:10068000BE016F5F7F4F09950F90DF91CF91089565
:1006900083E00C943D0183E00E94CE0190E0089538
:1006A000CF93DF931F92CDB7DEB7FC01848595858C
:1006B00097FD08C02FEF3FEF358724870F90DF911C
:1006C000CF910895CE0101960E94BC00019719F4C4
:1006D000898190E0F3CF8FEF9FEFF0CF0F931F93BF
:1006E000CF93DF931F92CDB7DEB78C01FC018485D9
:1006F000958597FF0BC0CE0101960E94BC00019723
:1007000071F4898190E0F80195878487F8018485E8
:1007100095850F90DF91CF911F910F9108958FEFE5
:100720009FEFF1CFFC018485958597FD0BC09FB7A6
:10073000F89482E08093E9008091F2009FBF90E0FE
:10074000019608959FB7F89482E08093E900809124
:10075000F2009FBF90E0089590E080E0089580E06F
:1007600008950F931F93CF93DF93CDB7DEB7C45691
:10077000D1090FB6F894DEBF0FBECDBFFC01DB017F
:100780009C919E5F9C939E01295F3F4F8AE5D90112
:100790001D928A95E9F788E089838BE08A8322E0BD
:1007A0002C8391E09D839E8339E0398764E06A87DA
:1007B0009E879F873A8B44E24B8B9C8BA0E0B1E0F5
:1007C000BE8BAD8B09E010E0188F0F8B998F3B8F9C
:1007D0006C8F2F8F98A353E059A387E08CA34DA370
:1007E0009EA3B8A7AFA3A1E4B0E0BAA7A9A786E0EB
:1007F0008BA74CA72DA79EA79FA789AB4AAB2BAB76
:100800002CAB2DAB3FAB48AF59AF9AAF5BAF9CAFB2
:100810002DAF9EAF21963FAF219722964FAF2297E3
:1008200023965FAF239724962FAF249725966FAF1B
:10083000259726969FAF269727969FAF27972896AE
:100840009FAF28972A963FAF2A9745E02B964FAF48
:100850002B972D962FAF2D9760E470E02F967FAFEA
:100860006EAF2F9763964FAF639785E264968FAF15
:10087000649765969FAF659766969FAF66976796F4
:100880009FAF679768963FAF689769964FAF699734
:100890006B962FAF6B976D967FAF6EAF6D97A196EE
:1008A0004FAFA197A2968FAFA297A3969FAFA397A2
:1008B000A4969FAFA497A5965FAFA59792819B83BF
:1008C0009B879F5F9A8F9D8F83812C968FAF2C97EC
:1008D0008F5F80686A968FAF6A9744E650E0BE01EA
:1008E0006F5F7F4F80E00E94A801CC59DF4F0FB6A9
:1008F000F894DEBF0FBECDBFDF91CF911F910F9156
:10090000089584E0E1E3F1E0DB0101900D928A9526
:10091000E1F784E008951F920F920FB60F92112411
:100920002F933F938F939F93AF93BF9380914E01EB
:1009300090914F01A0915001B091510130914D0122
:1009400023E0230F2D3758F50196A11DB11D2093EB
:100950004D0180934E0190934F01A0935001B093AD
:1009600051018091520190915301A0915401B09195
:1009700055010196A11DB11D809352019093530121
:10098000A0935401B0935501BF91AF919F918F9166
:100990003F912F910F900FBE0F901F90189526E852
:1009A000230F0296A11DB11DD2CF1F920F920FB639
:1009B0000F9211242F933F934F935F936F937F93E5
:1009C0008F939F93AF93BF93CF93EF93FF93C09178
:1009D000E1008091E100837F8093E100C3FF0FC0BD
:1009E0001092E90081E08093EB001092EC0082E32A
:1009F0008093ED001092570188E08093F000C2FFD1
:100A00001BC083E00E943D0180914701882341F093
:100A100080914701815080934701811101C05D9A07
:100A200080915601882341F0809156018150809336
:100A30005601811101C0289AC4FF23C08091E200B1
:100A40008E7E81608093E2008091E1008F7E8093B2
:100A5000E100809148018E7E806180934801FF9182
:100A6000EF91CF91BF91AF919F918F917F916F91B6
:100A70005F914F913F912F910F900FBE0F901F905C
:100A80001895C0FFECCF8091E2008E7E806180934C
:100A9000E2008091E1008E7E8093E1008091480128
:100AA0008E7E8160DACF1F920F920FB60F921124C3
:100AB000CF92DF92EF92FF920F931F932F933F936A
:100AC0004F935F936F937F938F939F93AF93BF9356
:100AD000EF93FF93CF93DF93CDB7DEB76C97DEBF75
:100AE000CDBF1092E9008091E80083FF25C068E047
:100AF000CE0145960E94CA0282EF8093E8008D895C
:100B000087FF39C09091E80090FFFCCF982F907636
:100B100009F034C19E894F89588D2F89F88C911125
:100B200031C0803861F5809149018093F1001092C5
:100B3000F1008EEF8093E8006C960FB6F894DEBF5C
:100B40000FBECDBFDF91CF91FF91EF91BF91AF91DC
:100B50009F918F917F916F915F914F913F912F91D5
:100B60001F910F91FF90EF90DF90CF900F900FBEED
:100B70000F901F9018959EEF9093E800C7CF1092AA
:100B8000F100D5CF913059F48111D3CF41305105C7
:100B900081F6809149018D7F80934901CACF9330BE
:100BA00049F48111C6CF4130510519F680914901B0
:100BB0008260F2CF953041F48091E80080FFFCCF55
:100BC00020682093E300B5CF963009F0A9C00B8DC3
:100BD0001C8D22E01092E900109245011092440110
:100BE000F2122EC010924301109242010E94EB02B9
:100BF0001F8299E09983FA8291E09E8390EA988718
:100C00009AEF99872091440130914501275F3F4F2A
:100C10003C832B838D831092E90010924501109242
:100C20004401109343010093420149E050E0BE01AA
:100C30006F5F7F4F80E00E94A8010E94EB0279CF96
:100C400010934301009342010E94D702DC011296E7
:100C50000D911C910115110509F451C1D801ED91B7
:100C6000FC910480F581E02DBE016B5E7F4FC801D1
:100C70000995009709F03EC1F80100851185EACF7A
:100C8000F3E0FF120EC08F89882309F440C0823040
:100C900061F440E860E180E191E00E94750181111A
:100CA00048CF81E28093EB0047CF813029F440E8C0
:100CB0006BE084E091E0F1CF833099F70E94D70296
:100CC000DC011296ED90FC908E010F5F1F4F6801C2
:100CD000E114F10479F0D701ED91FC910680F781E0
:100CE000E02DB801C7010995080F111DF701E08437
:100CF000F184EECFD8011C92F60101900020E9F7B3
:100D00003197BF016C197D0940E0C601C6CF6EEE78
:100D100070E0FB01449150E080E80E94A80109CFF7
:100D2000973009F4BECF983021F481E08093F10030
:100D300000CF993009F0FDCE837009F0B2CFEDE01D
:100D4000F1E081E031E096E32191222371F080937C
:100D5000E9003093EB00DF0111972C912093EC0018
:100D60009093ED008F5F873079F78EE78093EA00EC
:100D70001092EA008F8980935701DBCE8B8D9C8D7A
:100D80001092E900109245011092440190934301A2
:100D900080934201898D811192C08E899D89913AFB
:100DA00049F4813209F07DCF47E050E064E071E022
:100DB00080E0B3CF913209F074CF833269F48F8928
:100DC000988DB0E0A0E08093000190930101A09382
:100DD0000201B0930301ADCE803269F48091E80046
:100DE00082FFFCCF67E084E091E00E94CA028BEFB3
:100DF0008093E8009ECE823209F09BCE8F8980934B
:100E00000B01EEEFFFE7859194918B3F9C4D51F1E3
:100E1000E0E0F8E08091040190910501A0910601C5
:100E2000B0910701803B9440A105B105F1F4809198
:100E30000B0180FD1AC0EE3F8AE0F80789F587E7CD
:100E400097E791838083809160008093460188E1D9
:100E50009BE00FB6F894A895809360000FBE909326
:100E6000600067CEEEEFFAE0D5CF808191818737C1
:100E7000974709F05ECEA8958091600088618093C5
:100E800060008091460180936000EE3F2AE0F20707
:100E900089F08091FE0A9091FF0A9183808349CE68
:100EA000808191818737980751F29093FF0A809350
:100EB000FE0AC5CF1092FF0A1092FE0A3ACE0E9497
:100EC000D702DC0112960D911C910115110509F450
:100ED000E8CED801ED91FC910190F081E02DBE01AA
:100EE0006B5E7F4FC8010995811123CEF801008503
:100EF0001185EBCF181619060CF41BCED2CEF1E0FB
:100F0000FF12BECE62EF70E004CFCF93DF9310925A
:100F10005B0110925A0188EE93E0A0E0B0E080936C
:100F20005C0190935D01A0935E01B0935F0187E146
:100F300091E090935901809358018FEF9FEF909328
:100F400065018093640182E08093AC018093AD01E0
:100F500082EB91E09093AF018093AE011092B101CA
:100F60001092B00189E291E09093A9018093A801C9
:100F700080E88093B20181E88093B3010E94D70298
:100F8000FC0181819091AC01482F490F5527551FD5
:100F9000483051059CF5A281B381109709F528EAE4
:100FA00031E03383228320812093AA018093AB0117
:100FB0008091AD01820F80832091AE01A22FB0916C
:100FC000AF018A2F821B8917C8F481813D91C82FF8
:100FD000D0E0C45FDE4F38838F5F8183F2CFD901C9
:100FE00018962D913C91199721153105C1F728EAE2
:100FF00031E019963C932E931897D5CFDF91CF917E
:101000000895789484B5826084BD84B5816084BD80
:1010100085B5826085BD85B5816085BD80916E0096
:10102000816080936E0010928100809181008260C7
:101030008093810080918100816080938100809104
:101040008000816080938000809191008260809315
:101050009100809191008160809391008091900037
:101060008160809390008091C10084608093C10072
:101070008091C10082608093C1008091C100816035
:101080008093C1008091C30081608093C3008091F0
:10109000C00082608093C0008091C2008160809314
:1010A000C20080917A00846080937A0080917A00F7
:1010B000826080937A0080917A00816080937A00C8
:1010C00080917A00806880937A0010925701109284
:1010D0004901109248018091D70081608093D70028
:1010E00080EA8093D80089B5806189BD89B5826026
:1010F00089BD09B400FEFDCF61E070E080E090E0C2
:101100000E940B018091D8008F7C80618093D80071
:101110008091E000807F8093E0008091E1008E7EEE
:101120008093E1008DE08093E200559A209A8FEF42
:101130009FEF909365018093640180E0E82E80E04A
:10114000F82ED1E083B1C9B1C07119B1082F007177
:1011500084FD09C080914C01811105C084E20E9488
:101160007902D0934C01C11109C080914B018111CA
:1011700005C086E20E947902D0934B0117FD09C099
:1011800080914A01811105C086E20E947902D093C4
:101190004A01002329F084E20E94A20210924C012D
:1011A000CC2329F086E20E94A20210924B0117FF85
:1011B00005C086E20E94A20210924A0169E170E035
:1011C00080E090E00E940B01E114F10409F4BACF31
:1011D0000E940000B7CFEE0FFF1F0590F491E02DA5
:0611E0000994F894FFCF12
:1011E600FFFFFFFF00E100000000000000C180815A
:1011F6000000000000000032031C034B034803926A
:101206000350036E0300000000AF03B103AC03817B
:06121600044D49444900AB
:00000001FF
